:100000000C9462000C948A000C948A000C948A0070
:100010000C948A000C948A000C948A000C948A0038
:100020000C948A000C948A000C948A000C948A0028
:100030000C948A000C948A000C948A000C948A0018
:100040000C943E070C948A000C940C070C94E60662
:100050000C948A000C948A000C948A000C948A00F8
:100060000C948A000C948A000000000024002700F1
:100070002A0000000000250028002B0000000000DE
:1000800023002600290004040404040404040202DA
:100090000202020203030303030301020408102007
:1000A0004080010204081020010204081020000012
:1000B0000008000201000003040700000000000027
:1000C0000000880711241FBECFEFD8E0DEBFCDBFF0
:1000D00014E0A0E0B1E0E4E1F5E102C005900D928A
:1000E000A030B107D9F725E0A0E0B4E001C01D922F
:1000F000AF32B207E1F710E0C2E6D0E004C02197CA
:10010000FE010E947D0AC136D107C9F70E94470847
:100110000C94880A0C94000096E0899FD001112469
:10012000A855BB4F90967C936E935F9791E0919604
:100130009C93919790911405E0911505F091160507
:10014000992339F0309751F0811108C08091C4048F
:1001500004C0309719F05C968C9109940895CF9261
:10016000DF92EF92FF920F931F93CF93DF936C0177
:100170007A018B01C0E0D0E0CE15DF0589F0D8010F
:100180006D918D01D601ED91FC910190F081E02DF2
:10019000C6010995892B11F47E0102C02196ECCF8E
:1001A000C701DF91CF911F910F91FF90EF90DF90EA
:1001B000CF900895FC01538D448D252F30E0842F7E
:1001C00090E0821B930B541710F0CF96089501977F
:1001D0000895FC01918D828D981761F0828DDF0169
:1001E000A80FB11D5D968C91928D9F5F9F73928F2A
:1001F00090E008958FEF9FEF0895FC01918D828D1F
:10020000981731F0828DE80FF11D858D90E00895EB
:100210008FEF9FEF0895FC01918D228D892F90E043
:10022000805C9F4F821B91098F73992708958BE003
:1002300094E00E940B0121E0892B09F420E0822F39
:100240000895FC01848DDF01A80FB11DA35ABF4F93
:100250002C91848D90E001968F739927848FA689C5
:10026000B7892C93A089B1898C9180648C93938DEC
:10027000848D981306C00288F389E02D80818F7DDC
:1002800080830895EF92FF920F931F93CF93DF9394
:10029000EC0181E0888F9B8D8C8D981305C0E889D7
:1002A000F989808185FD24C0F62E0B8D10E00F5F4B
:1002B0001F4F0F731127E02E8C8DE8120CC00FB664
:1002C00007FCFACFE889F989808185FFF5CFCE0157
:1002D0000E942101F1CF8B8DFE01E80FF11DE35A41
:1002E000FF4FF0820B8FEA89FB898081806207C013
:1002F000EE89FF896083E889F98980818064808341
:1003000081E090E0DF91CF911F910F91FF90EF90EE
:100310000895CF93DF93EC01888D8823C9F0EA8993
:10032000FB89808185FD05C0A889B9898C9186FDEE
:100330000FC00FB607FCF5CF808185FFF2CFA889EB
:10034000B9898C9185FFEDCFCE010E942101E7CFC5
:10035000DF91CF91089580E090E0892B29F00E94F1
:10036000170181110C9400000895833081F028F466
:10037000813099F08230A1F008958730A9F088305B
:10038000B9F08430D1F4809180008F7D03C08091DA
:1003900080008F7780938000089584B58F7702C0A6
:1003A00084B58F7D84BD08958091B0008F7703C0A0
:1003B0008091B0008F7D8093B0000895CF93DF933C
:1003C000282F30E0F901E255FF4F8491F901E656FC
:1003D000FF4FD491F901EA57FF4FC491CC2391F01C
:1003E00081110E94B501EC2FF0E0EE0FFF1FE458E1
:1003F000FF4FA591B491EC91ED2381E090E021F4C1
:1004000080E002C080E090E0DF91CF9108951F93DB
:10041000CF93DF93282F30E0F901E255FF4F84910D
:10042000F901E656FF4FD491F901EA57FF4FC49105
:10043000CC23C9F0162F81110E94B501EC2FF0E0FA
:10044000EE0FFF1FEE58FF4FA591B4918FB7F894B0
:10045000111105C09C91ED2FE095E92302C0EC91AC
:10046000ED2BEC938FBFDF91CF911F910895CF9328
:10047000DF9390E0FC01E656FF4F2491FC01EA5720
:10048000FF4F8491882361F190E0880F991FFC0150
:10049000E859FF4FC591D491FC01EE58FF4FA5914B
:1004A000B491611109C09FB7F89488812095822387
:1004B0008883EC912E230BC0623061F49FB7F894CF
:1004C0003881822F809583238883EC912E2B2C9367
:1004D0009FBF06C08FB7F894E8812E2B28838FBF6B
:1004E000DF91CF9108953FB7F894809105049091E2
:1004F0000604A0910704B091080426B5A89B05C086
:100500002F3F19F00196A11DB11D3FBFBA2FA92F92
:10051000982F8827820F911DA11DB11DBC01CD010F
:1005200042E0660F771F881F991F4A95D1F70895FB
:100530008F929F92AF92BF92CF92DF92EF92FF92F3
:100540006B017C010E9473024B015C01C114D10458
:10055000E104F104F1F00E947302DC01CB0188197F
:100560009909AA09BB09883E9340A105B10570F31A
:1005700021E0C21AD108E108F10888EE880E83E074
:10058000981EA11CB11CC114D104E104F10419F797
:10059000DDCFFF90EF90DF90CF90BF90AF909F9016
:1005A0008F9008952FB7F894609101047091020420
:1005B00080910304909104042FBF08950F931F931B
:1005C000CF93DF93C82FD62F86E0C89FF001112468
:1005D000E855FB4F11A2878D90A181309105F1F074
:1005E0001CF4892B49F043C082309105A9F103978F
:1005F000F1F560E070E034C06623C9F161E070E0BD
:100600008C2F0E948C000E94D20260930005709390
:100610000105809302059093030529C00E94D20230
:10062000009100051091010520910205309103050C
:10063000AB01BC01401B510B620B730B8091120587
:1006400090911305A0E0B0E084179507A607B707BF
:1006500018F462E070E004C0D11109C063E070E0FA
:100660008C2FDF91CF911F910F910C948C00DF9113
:10067000CF911F910F910895862F0C94DE01862F44
:10068000642F0C940702862F642F0C943702CF93AB
:10069000DF93EC0160E08E810E94070261E08E81B1
:1006A0000E94070260E08E810E9407028BE891E0C1
:1006B0000197F1F7DF91CF910895CF92DF92EF92FA
:1006C000FF920F931F93CF93DF937C016C0187E020
:1006D000C80ED11CC0E0D0E0062F10E0B8010C2EEF
:1006E00002C0759567950A94E2F76170F6018191F1
:1006F0006F010E9407022196C430D10579F7C70126
:10070000DF91CF911F910F91FF90EF90DF90CF90ED
:100710000C944703CF92DF92EF92FF920F931F93B7
:10072000CF93DF93EC01F62E642F8C810E94070299
:100730008D818F3F19F060E00E9407028F850F2D99
:1007400010E084FF25C06E0187E0C80ED11CE12CAB
:10075000F12CB8010E2C02C0759567950A94E2F74A
:100760006170F60181916F010E940702FFEFEF1A9D
:10077000FF0A88E0E816F10461F7CE01DF91CF911E
:100780001F910F91FF90EF90DF90CF900C94470353
:10079000B80184E0759567958A95E1F7CE010E94CE
:1007A0005D036F2DCE01DF91CF911F910F91FF90CF
:1007B000EF90DF90CF900C945D0341E00E948A039C
:1007C00081E090E0089540E00C948A03643008F0E2
:1007D00063E090912A05691710F06FEF690FE62F1B
:1007E000F0E0E95EFA4F9489682F690F606887E14D
:1007F00095E00C94E30361E00E94E3038BE39FE147
:100800000197F1F70895EF92FF920F931F93CF9303
:10081000DF93EC01423018F08F8588608F874B8B17
:100820001C8A80E48D8B6E8B70E0605C7F4F6F8BD9
:1008300061E08C810E9437028D818F3F19F061E069
:100840000E94370261E08E810E9437027E0187E0BC
:10085000E80EF11C00E010E08F8584FD03C084E009
:1008600090E002C088E090E0081719074CF461E0BE
:10087000F70181917F010E9437020F5F1F4FECCF7C
:100880008BE39DE00197F1F760E08C810E94070205
:1008900060E08E810E9407028D818F3F19F060E039
:1008A0000E9407026F8564FD1DC063E0CE010E94B7
:1008B0005D030BE416E4C8010197F1F763E0CE0194
:1008C0000E945D03C8010197F1F763E0CE010E9429
:1008D0005D0383E592E00197F1F762E0CE010E94AB
:1008E0005D0316C06062CE010E94E3038BE496E4D0
:1008F0000197F1F76F856062CE010E94E30383E503
:1009000092E00197F1F76F856062CE010E94E303E8
:100910006F856062CE010E94E30384E0888B6CE007
:10092000CE010E94E303CE010E94FB0382E0898B8B
:1009300066E0CE01DF91CF911F910F91FF90EF9074
:100940000C94E303089580E090E008954F925F9245
:100950006F927F928F929F92AF92BF92CF92DF92CF
:10096000EF92FF920F931F93CF93DF938EE2412C70
:10097000512C32014394CC24CA94DC2C811125C122
:1009800081E0809314050E94D20200910405109129
:1009900005052091060530910705AB01BC01401B00
:1009A000510B620B730B8091100590911105A0E023
:1009B000B0E084179507A607B70710F7C0E080914D
:1009C0000E05C81760F4E0910A05F0910B05EC0FD5
:1009D000F11D62E080810E943702CF5FF0CF912C41
:1009E00080910F05981608F05FC0092D10E0E09186
:1009F0000C05F0910D05E00FF11F61E080810E9470
:100A00003702E0910C05F0910D05E00FF11F60E059
:100A100080810E940702D301C201092C04C0880F03
:100A2000991FAA1FBB1F0A94D2F75C017C01E094B6
:100A3000F094812C80910E058816F8F4C82DD0E032
:100A4000E0910A05F0910B05EC0FFD1F80810E94DB
:100A5000DE012496CC0FDD1FC855DB4F892B29F40E
:100A6000888199818A299B2904C0888199818E2156
:100A70009F21998388838394DDCFE0910C05F091C9
:100A80000D05E00FF11F61E080810E940702809157
:100A90000C0590910D05FC01E00FF11F60E08081D5
:100AA0000E94370293949CCFE4ECF4E0838194811C
:100AB000892B21F41082D282C1821582369685E07C
:100AC000E030F80799F710E006E080910E0518175E
:100AD00008F052C0F12CC12FD0E0CC0FDD1FC05563
:100AE000DB4F20910F05F21608F044C06881798130
:100AF0000F2C02C0769567950A94E2F7617077270C
:100B0000129F900111242F0D311DE0910805F091E5
:100B10000905E20FF31FA081E8EAF4E080E0458DCB
:100B2000568D4217530711F461701AC08F5F3696C5
:100B30008A30A9F7672BE1F0E4ECF4E080E090E084
:100B40004081411110C0089FF001099FF00D112450
:100B5000E855FB4FA48F368F258F10A2178E61E0CA
:100B60000E94DE0205C0019636968A30910541F753
:100B7000F394B7CF1F5FA9CF80E090E0C0E0FC0105
:100B8000E855FB4F21A12111C1E006968C33910558
:100B9000B1F70E94D202609304057093050580931B
:100BA000060590930705CC2309F4EACE8091C90489
:100BB000882309F4E5CE8091C7049091C804019779
:100BC00009F0DECE8091C404D9CE8E3209F4D8CE9D
:100BD000DF91CF911F910F91FF90EF90DF90CF9019
:100BE000BF90AF909F908F907F906F905F904F904D
:100BF00008950E94830A6115710579F0FB01019047
:100C00000020E9F73197AF01461B570BDC01ED914E
:100C1000FC910280F381E02D099480E090E008953A
:100C2000BC0187E195E00C94FB058F929F92AF92F7
:100C3000BF92CF92DF92EF92FF920F931F93CF93C9
:100C4000DF93CDB7DEB7A1970FB6F894DEBF0FBE26
:100C5000CDBF6C01990FEE08FF08F7FE33C0E0919D
:100C60001705F09118050190F081E02D6DE287E104
:100C700095E009958C0122273327A9012C193D09FC
:100C80004E095F0919A2CE0181967C019AE0892E56
:100C9000912CA12CB12CCA01B901A50194010E948B
:100CA0004C0A605DF70162937F0121153105410512
:100CB000510589F7BF0187E195E00E94FB05800F90
:100CC000911F1FC0A701960119A28E010F5D1F4F32
:100CD0008AE0C82ED12CE12CF12CCA01B901A70160
:100CE00096010E944C0A605DF80162938F01211504
:100CF00031054105510589F7BF0187E195E00E9463
:100D0000FB05A1960FB6F894DEBF0FBECDBFDF91F5
:100D1000CF911F910F91FF90EF90DF90CF90BF90F8
:100D2000AF909F908F90089587E195E00E94FB031C
:100D300060E080E00E94E60382EA91E00E941006F3
:100D400062E080E00E94E60384EB91E00E941006DE
:100D500062E087E00E94E6038091090490910A0412
:100D60000E94150662E088E00E94E6038CEB91E0A9
:100D70000C941006CF93DF93E0910B04F0910C04D8
:100D80000190F081E02D682F8BE094E00995EC0153
:100D90006FEB71E08BE094E00E94FB058C0F9D1FD0
:100DA000DF91CF910895CF93DF93BC018BE094E066
:100DB0000E94FB05EC016FEB71E08BE094E00E9478
:100DC000FB058C0F9D1FDF91CF9108951F920F920D
:100DD0000FB60F9211242F933F934F935F936F930E
:100DE0007F938F939F93AF93BF93EF93FF938BE08A
:100DF00094E00E942101FF91EF91BF91AF919F91EB
:100E00008F917F916F915F914F913F912F910F90B3
:100E10000FBE0F901F9018951F920F920FB60F9252
:100E200011242F938F939F93EF93FF93E0911B04D3
:100E3000F0911C048081E0912104F091220482FD54
:100E400012C09081809124048F5F8F7320912504BC
:100E5000821751F0E0912404F0E0E55FFB4F958F9D
:100E60008093240401C08081FF91EF919F918F9125
:100E70002F910F900FBE0F901F9018951F920F92F9
:100E80000FB60F9211242F933F938F939F93AF939D
:100E9000BF938091010490910204A0910304B0914A
:100EA00004043091000423E0230F2D3720F4019631
:100EB000A11DB11D05C026E8230F0296A11DB11D7D
:100EC000209300048093010490930204A0930304F0
:100ED000B09304048091050490910604A091070446
:100EE000B09108040196A11DB11D80930504909353
:100EF0000604A0930704B0930804BF91AF919F919B
:100F00008F913F912F910F900FBE0F901F901895CA
:100F100010920E0410920D0488EE93E0A0E0B0E071
:100F200080930F0490931004A0931104B0931204C3
:100F30008EE791E090930C0480930B0485EC90E095
:100F4000909318048093170484EC90E090931A0413
:100F50008093190480EC90E090931C0480931B0410
:100F600081EC90E090931E0480931D0482EC90E04D
:100F70009093200480931F0486EC90E090932204C9
:100F800080932104109224041092250410922604C8
:100F90001092270410921A05109219058AE991E01F
:100FA00090931805809317058CE080931B058FEFB5
:100FB00080931C058BE080931D0587E080931E05C0
:100FC00086E080931F0585E08093200584E0809370
:100FD00021051092220510922305109224051092EB
:100FE00025051092260541E060E187E195E00E9429
:100FF00003041092AA041092AE041092AD04109251
:10100000AF0480E991E09093A9048093A80480E064
:1010100090E0FC01E855FB4F148E10A2178E11A230
:1010200006968C339105A9F783E091E090930B0528
:1010300080930A0580E091E090930D0580930C0564
:1010400084E080930E0583E080930F0587E091E0B4
:1010500090930905809308058AE090E0909311052C
:101060008093100584EF91E090931305809312050F
:1010700010921605109215051092040510920505A0
:1010800010920605109207051092140508957894A1
:1010900084B5826084BD84B5816084BD85B582607D
:1010A00085BD85B5816085BD80916E00816080932E
:1010B0006E00109281008091810082608093810097
:1010C00080918100816080938100809180008160A7
:1010D000809380008091B10084608093B100809102
:1010E000B00081608093B00080917A00846080932A
:1010F0007A0080917A00826080937A0080917A00F1
:10110000816080937A0080917A00806880937A0071
:101110001092C100E0911B04F0911C0482E08083D6
:10112000E0911704F09118041082E0911904F091F5
:101130001A048FEC808310922304E0911F04F09135
:10114000200486E08083E0911D04F0911E048081DC
:1011500080618083E0911D04F0911E04808188608D
:101160008083E0911D04F0911E048081806880835B
:10117000E0911D04F0911E0480818F7D808344E006
:1011800064E187E195E00E94030480E480937C00A1
:1011900080917A00806480937A0080917A0086FD45
:1011A000FCCF609178008091790070E0782B072E59
:1011B000000C880B990B611571058105910511F0E3
:1011C0000E94110A29E0822E912CA12CB12C1092A0
:1011D0000A041092090487E195E00E94FB0360E095
:1011E00080E00E94E60382EC91E00E94100661E03C
:1011F00080E00E94E60382ED91E00E94100662E02A
:1012000080E00E94E6038EED91E00E9410060E94AD
:10121000A604C82F80EF91E00E94D3068C2F0E9475
:10122000BA06C03309F098C004E010E00E940C0A2E
:10123000A50194010E941A0A2B013C0187E195E067
:101240000E94FB0360E080E00E94E603F201EE0FE3
:10125000FF1FE95EFE4F808191810E94100663E0CE
:1012600080E00E94E60384EF91E00E9410060E9455
:10127000A604803319F08332D1F77AC080EF91E071
:101280000E94D30680E30E94BA0687E195E00E949F
:10129000FB03620183E0CC0CDD1C8A95E1F7E12CB5
:1012A000F12CC0E0D0E03C2E6C2F80E00E94E603E1
:1012B0002196CE010E941506632D83E00E94E6036D
:1012C000F701EC0DFD1DE75DFE4F808191810E94CD
:1012D000100682E0E80EF11CC430D10521F70E940F
:1012E000A604C82F8FEC8C0F843008F03EC080EF2E
:1012F00091E00E94D3068C2F0E94BA0687E195E008
:101300000E94FB0360E080E00E94E60387E292E037
:101310000E94D306F201EF58FE4FD0818D2F0E941C
:10132000BA06CD1328C08091090490910A04019651
:1013300090930A048093090487E092E00E941006CB
:1013400060ED77E080E090E00E9498020150110982
:1013500009F06CCF0E94940668EB7BE080E090E09F
:101360000E9498020E94AB0132CFC33209F0B7CF7E
:101370000E949406EBCF8CE192E0E0CF8F929F9297
:10138000AF92BF92CF92DF92EF92FF92CF93DF9313
:10139000EC01688179818A819B81611571058105E4
:1013A000910521F464E279ED8BE597E02DE133EFCF
:1013B00041E050E00E941A0A49015A019B01AC0128
:1013C000A7EAB1E40E94390A6B017C01ACEEB4EFEC
:1013D000A50194010E94470ADC01CB018C0D9D1DE3
:1013E000AE1DBF1DB7FF03C00197A109B048888398
:1013F0009983AA83BB83BC01CD019F77DF91CF91F5
:10140000FF90EF90DF90CF90BF90AF909F908F9024
:1014100008950E94BE09089583E191E00E94BE09EB
:1014200008956093130170931401809315019093B4
:1014300016010895052E97FB1EF400940E94310AB0
:1014400057FD07D00E944C0A07FC03D04EF40C94C1
:10145000310A50954095309521953F4F4F4F5F4F42
:10146000089590958095709561957F4F8F4F9F4F10
:1014700008950E946E0AA59F900DB49F900DA49FA1
:10148000800D911D11240895B7FF0C94390A0E9414
:10149000390A821B930B0895A1E21A2EAA1BBB1BCB
:1014A000FD010DC0AA1FBB1FEE1FFF1FA217B30730
:1014B000E407F50720F0A21BB30BE40BF50B661F46
:1014C000771F881F991F1A9469F76095709580950A
:1014D00090959B01AC01BD01CF010895A29FB00181
:1014E000B39FC001A39F700D811D1124911DB29F58
:1014F000700D811D1124911D0895EE0FFF1F0590A1
:10150000F491E02D099481E090E0F8940C94880A1D
:04151000F894FFCF7D
:101514000A090800010203313233343536373839C9
:101524002A3023010000002E025702690278029C2F
:1015340002B802D402E5020503210326032C033377
:10154400033D0344034B0355035D03610366036DCD
:101554000376037A037E03820386038A038E03924F
:101564000397039D03AD03B303BB03C303C903CDB7
:1015740003D103D203D803D903E403EB03F303F940
:10158400033231333333323432310000000042014C
:10159400AF00DA0089010B01E900FD000000000042
:1015A40043033F033C0300000000DD03AF00A3043A
:1015B400A2044279652120636C6F73696E672071A0
:1015C40075697A0053636F72653A20002F34000DF9
:1015D4000A0057656C636F6D6520746F20717569BF
:1015E4007A00303A20746F20737461727400233A65
:1015F40020746F20656E64206F7220736B697000B5
:101604006B657900303A20746F2073686F772061BE
:101614006E737765727300596561682120436F7238
:101624007265637420616E73776572004F70732105
:101634002057726F6E6720616E737765720057680A
:1016440069636820636F76657273206D6F737420AD
:101654006F6620746865204561727468277320730F
:1016640075726661636500576869636820697320F1
:1016740061206D616D6D616C0046726F6720746FDF
:101684006E67756520697300576869636820776FB2
:101694007264206C6F6F6B73207468652073616D66
:1016A4006520696E206D6972726F72005768696394
:1016B4006820697320746865206C6172676573744F
:1016C400206E756D62657200576869636820616297
:1016D400736F7262732064696765737465642066EE
:1016E4006F6F6400432063616E20626520757365CB
:1016F40064206F6E00546865206D6178696D756E45
:101704002076616C7565206F6620696E7465676507
:101714007220697300576861742069732074686566
:10172400206C61726765737420636F756E7472796F
:101734000053616E64005761746572004369746993
:101744006573004D6F756E7461696E7300526162EA
:1017540062697400537069646572004275747465DB
:1017640072666C790053706172726F77004472799B
:10177400004861726400537469636B7900436F6C51
:101784006F7266756C0048494D00504F54004D4FC0
:101794004D0053554E00393839003839380039393D
:1017A400390039392E3900426C6F6F6400536D6112
:1017B4006C6C20496E74657374696E65004C657653
:1017C40065720053746F6D6163680057696E646F6E
:1017D4007773004C696E757800444F5300416C6C0C
:1017E400002D3332373637002D312E373031346502
:1017F4002B33380052757373696100416D657269EA
:101804006361004368696E610043616E61646100F5
:107E0000112484B714BE81FFF0D085E080938100F7
:107E100082E08093C00088E18093C10086E0809377
:107E2000C20080E18093C4008EE0C9D0259A86E02C
:107E300020E33CEF91E0309385002093840096BBD3
:107E4000B09BFECF1D9AA8958150A9F7CC24DD24C4
:107E500088248394B5E0AB2EA1E19A2EF3E0BF2EE7
:107E6000A2D0813461F49FD0082FAFD0023811F036
:107E7000013811F484E001C083E08DD089C08234E0
:107E800011F484E103C0853419F485E0A6D080C0E4
:107E9000853579F488D0E82EFF2485D0082F10E0AE
:107EA000102F00270E291F29000F111F8ED06801E7
:107EB0006FC0863521F484E090D080E0DECF843638
:107EC00009F040C070D06FD0082F6DD080E0C81688
:107ED00080E7D80618F4F601B7BEE895C0E0D1E017
:107EE00062D089930C17E1F7F0E0CF16F0E7DF06D8
:107EF00018F0F601B7BEE89568D007B600FCFDCFD4
:107F0000A601A0E0B1E02C9130E011968C91119780
:107F100090E0982F8827822B932B1296FA010C0160
:107F200087BEE89511244E5F5F4FF1E0A038BF0790
:107F300051F7F601A7BEE89507B600FCFDCF97BE46
:107F4000E89526C08437B1F42ED02DD0F82E2BD052
:107F50003CD0F601EF2C8F010F5F1F4F84911BD097
:107F6000EA94F801C1F70894C11CD11CFA94CF0C13
:107F7000D11C0EC0853739F428D08EE10CD085E9AC
:107F80000AD08FE07ACF813511F488E018D01DD067
:107F900080E101D065CF982F8091C00085FFFCCF94
:107FA0009093C60008958091C00087FFFCCF809118
:107FB000C00084FD01C0A8958091C6000895E0E648
:107FC000F0E098E1908380830895EDDF803219F02E
:107FD00088E0F5DFFFCF84E1DECF1F93182FE3DFCA
:107FE0001150E9F7F2DF1F91089580E0E8DFEE27F6
:047FF000FF270994CA
:027FFE00040479
:0400000300007E007B
:00000001FF
